{
  "_format": "hh-sol-artifact-1",
  "contractName": "MockSiloFactory",
  "sourceName": "contracts/MockSiloFactory.sol",
  "abi": [
    {
      "anonymous": false,
      "inputs": [
        {
          "indexed": false,
          "internalType": "address",
          "name": "silo",
          "type": "address"
        },
        {
          "indexed": false,
          "internalType": "string",
          "name": "name",
          "type": "string"
        }
      ],
      "name": "SiloCreated",
      "type": "event"
    },
    {
      "inputs": [
        {
          "internalType": "address",
          "name": "silo",
          "type": "address"
        },
        {
          "internalType": "string",
          "name": "name",
          "type": "string"
        }
      ],
      "name": "addMarket",
      "outputs": [
        {
          "internalType": "bool",
          "name": "",
          "type": "bool"
        }
      ],
      "stateMutability": "nonpayable",
      "type": "function"
    },
    {
      "inputs": [
        {
          "internalType": "address",
          "name": "silo",
          "type": "address"
        }
      ],
      "name": "isSilo",
      "outputs": [
        {
          "internalType": "bool",
          "name": "",
          "type": "bool"
        }
      ],
      "stateMutability": "view",
      "type": "function"
    },
    {
      "inputs": [
        {
          "internalType": "address",
          "name": "silo",
          "type": "address"
        }
      ],
      "name": "silo",
      "outputs": [
        {
          "internalType": "address",
          "name": "",
          "type": "address"
        }
      ],
      "stateMutability": "view",
      "type": "function"
    }
  ],
  "bytecode": "0x608060405234801561001057600080fd5b5061029a806100206000396000f3fe608060405234801561001057600080fd5b50600436106100415760003560e01c806312f0dcd81461004657806337f9a6bd1461006f57806395754bec1461009a575b600080fd5b61005a610054366004610105565b50600190565b60405190151581526020015b60405180910390f35b61008261007d366004610105565b503390565b6040516001600160a01b039091168152602001610066565b61005a6100a8366004610127565b60007faeebd8ea2aca14b6f613aea86da07fe6a24b5dd97e13945d0628ce51260ebe9183836040516100db9291906101e9565b60405180910390a192915050565b80356001600160a01b038116811461010057600080fd5b919050565b60006020828403121561011757600080fd5b610120826100e9565b9392505050565b6000806040838503121561013a57600080fd5b610143836100e9565b9150602083013567ffffffffffffffff8082111561016057600080fd5b818501915085601f83011261017457600080fd5b8135818111156101865761018661024e565b604051601f8201601f19908116603f011681019083821181831017156101ae576101ae61024e565b816040528281528860208487010111156101c757600080fd5b8260208601602083013760006020848301015280955050505050509250929050565b60018060a01b038316815260006020604081840152835180604085015260005b8181101561022557858101830151858201606001528201610209565b81811115610237576000606083870101525b50601f01601f191692909201606001949350505050565b634e487b7160e01b600052604160045260246000fdfea26469706673582212204610b11d23d539a1e3751ddffa94ea09b9905978ff6ab3e157da7a7f10f99fe564736f6c63430008070033",
  "linkReferences": {},
  "deployedLinkReferences": {}
}