{
  "address": "0x6446887ea1CD794697093E08D00BcbE311256282",
  "abi": [
    {
      "inputs": [
        {
          "internalType": "address",
          "name": "_factory",
          "type": "address"
        }
      ],
      "stateMutability": "nonpayable",
      "type": "constructor"
    },
    {
      "inputs": [],
      "name": "PERIOD",
      "outputs": [
        {
          "internalType": "uint256",
          "name": "",
          "type": "uint256"
        }
      ],
      "stateMutability": "view",
      "type": "function"
    },
    {
      "inputs": [
        {
          "internalType": "address",
          "name": "_base",
          "type": "address"
        },
        {
          "internalType": "address",
          "name": "_quote",
          "type": "address"
        },
        {
          "internalType": "bytes",
          "name": "",
          "type": "bytes"
        }
      ],
      "name": "getPrice",
      "outputs": [
        {
          "internalType": "uint256",
          "name": "price",
          "type": "uint256"
        }
      ],
      "stateMutability": "nonpayable",
      "type": "function"
    },
    {
      "inputs": [
        {
          "internalType": "address",
          "name": "_base",
          "type": "address"
        },
        {
          "internalType": "address",
          "name": "_quote",
          "type": "address"
        },
        {
          "internalType": "bytes",
          "name": "",
          "type": "bytes"
        }
      ],
      "name": "initToken",
      "outputs": [],
      "stateMutability": "nonpayable",
      "type": "function"
    },
    {
      "inputs": [],
      "name": "isSiloOracle",
      "outputs": [
        {
          "internalType": "bool",
          "name": "",
          "type": "bool"
        }
      ],
      "stateMutability": "pure",
      "type": "function"
    },
    {
      "inputs": [],
      "name": "uniswapV2Factory",
      "outputs": [
        {
          "internalType": "address",
          "name": "",
          "type": "address"
        }
      ],
      "stateMutability": "view",
      "type": "function"
    }
  ],
  "transactionHash": "0x201923380902d4fe7b3f809193886df0c226df36fe1898c21bb5c74e0279abb7",
  "args": [
    "0xc35DADB65012eC5796536bD9864eD8773aBc74C4"
  ],
  "solcInputHash": "e3dbc06536b6afa6b9ffd965d36bb16d",
  "bytecode": "0x60a060405234801561001057600080fd5b50604051610cc0380380610cc08339818101604052602081101561003357600080fd5b5051606081901b6001600160601b0319166080526001600160a01b0316610c5461006c6000398061027d528061040d5250610c546000f3fe608060405234801561001057600080fd5b50600436106100575760003560e01c8063355efdd91461005c57806359d0f7131461012d578063b4d1d79514610151578063c77a494914610159578063ecdcb0ff1461021a575b600080fd5b61011b6004803603606081101561007257600080fd5b6001600160a01b0382358116926020810135909116918101906060810160408201356401000000008111156100a657600080fd5b8201836020820111156100b857600080fd5b803590602001918460018302840111640100000000831117156100da57600080fd5b91908080601f016020809104026020016040519081016040528093929190818152602001838380828437600092019190915250929550610236945050505050565b60408051918252519081900360200190f35b61013561027b565b604080516001600160a01b039092168252519081900360200190f35b61011b61029f565b6102186004803603606081101561016f57600080fd5b6001600160a01b0382358116926020810135909116918101906060810160408201356401000000008111156101a357600080fd5b8201836020820111156101b557600080fd5b803590602001918460018302840111640100000000831117156101d757600080fd5b91908080601f0160208091040260200160405190810160405280939291908181526020018383808284376000920191909152509295506102a5945050505050565b005b6102226102b6565b604080519115158252519081900360200190f35b6000610244848460016102bb565b50506001600160a01b039182166000908152602081815260408083209390941682529190915220600101546001600160901b031690565b7f000000000000000000000000000000000000000000000000000000000000000081565b61038481565b6102b1838360006102bb565b505050565b600190565b6001600160a01b03808416600090815260208181526040808320938616835292905290812090806102ec8686610406565b6001850154919350915063ffffffff600160901b909104811682039061038490821610158061033557506001840154600160b01b810463ffffffff908116600160901b90920416145b156103fd5761038061037b670de0b6b3a764000060405180602001604052808563ffffffff16896000015489038161036957fe5b046001600160e01b03169052906106a4565b61073a565b60018501805485875563ffffffff808616600160901b0263ffffffff60901b196001600160901b039590951671ffffffffffffffffffffffffffffffffffff1990931692909217939093161790819055600160b01b9004166103fd5760018401805463ffffffff60b01b1916600160b01b63ffffffff8516021790555b50505050505050565b60008060007f00000000000000000000000000000000000000000000000000000000000000006001600160a01b031663e6a4390586866040518363ffffffff1660e01b815260040180836001600160a01b03168152602001826001600160a01b031681526020019250505060206040518083038186803b15801561048957600080fd5b505afa15801561049d573d6000803e3d6000fd5b505050506040513d60208110156104b357600080fd5b505190506001600160a01b038116610512576040805162461bcd60e51b815260206004820152601860248201527f556e697377617056324f7261636c653a204e4f5f504149520000000000000000604482015290519081900360640190fd5b600080826001600160a01b0316630902f1ac6040518163ffffffff1660e01b815260040160606040518083038186803b15801561054e57600080fd5b505afa158015610562573d6000803e3d6000fd5b505050506040513d606081101561057857600080fd5b50805160209091015190925090506001600160701b038216158015906105a657506001600160701b03811615155b6105f7576040805162461bcd60e51b815260206004820152601c60248201527f556e697377617056324f7261636c653a204e4f5f524553455256455300000000604482015290519081900360640190fd5b600080600061060586610741565b92509250925060008a6001600160a01b0316876001600160a01b0316630dfe16816040518163ffffffff1660e01b815260040160206040518083038186803b15801561065057600080fd5b505afa158015610664573d6000803e3d6000fd5b505050506040513d602081101561067a57600080fd5b50516001600160a01b03161415610692575082610695565b50815b9a909950975050505050505050565b6106ac610bf9565b60008215806106d257505082516001600160e01b0316828102908382816106cf57fe5b04145b610723576040805162461bcd60e51b815260206004820152601960248201527f4669786564506f696e743a3a6d756c3a206f766572666c6f7700000000000000604482015290519081900360640190fd5b604080516020810190915290815290505b92915050565b5160701c90565b600080600061074e610930565b9050836001600160a01b0316635909c0d56040518163ffffffff1660e01b815260040160206040518083038186803b15801561078957600080fd5b505afa15801561079d573d6000803e3d6000fd5b505050506040513d60208110156107b357600080fd5b505160408051635a3d549360e01b815290519194506001600160a01b03861691635a3d549391600480820192602092909190829003018186803b1580156107f957600080fd5b505afa15801561080d573d6000803e3d6000fd5b505050506040513d602081101561082357600080fd5b505160408051630240bc6b60e21b81529051919350600091829182916001600160a01b03891691630902f1ac916004808301926060929190829003018186803b15801561086f57600080fd5b505afa158015610883573d6000803e3d6000fd5b505050506040513d606081101561089957600080fd5b5080516020820151604090920151909450909250905063ffffffff808216908516146109265780840363ffffffff81166108df6001600160701b0380861690871661093a565b600001516001600160e01b031602870196508063ffffffff16610914856001600160701b0316856001600160701b031661093a565b516001600160e01b0316029590950194505b5050509193909250565b63ffffffff421690565b610942610c0c565b60008211610997576040805162461bcd60e51b815260206004820152601e60248201527f4669786564506f696e743a3a6672616374696f6e3a2064697620627920300000604482015290519081900360640190fd5b826109b15750604080516020810190915260008152610734565b6001600160901b038311610a4d57600082607085901b816109ce57fe5b0490506001600160e01b03811115610a2d576040805162461bcd60e51b815260206004820152601e60248201527f4669786564506f696e743a3a6672616374696f6e3a206f766572666c6f770000604482015290519081900360640190fd5b6040518060200160405280826001600160e01b0316815250915050610734565b6000610a5e84600160701b85610abc565b90506001600160e01b03811115610a2d576040805162461bcd60e51b815260206004820152601e60248201527f4669786564506f696e743a3a6672616374696f6e3a206f766572666c6f770000604482015290519081900360640190fd5b6000806000610acb8686610b5c565b9150915060008480610ad957fe5b868809905082811115610aed576001820391505b8083039250848210610b46576040805162461bcd60e51b815260206004820152601a60248201527f46756c6c4d6174683a3a6d756c4469763a206f766572666c6f77000000000000604482015290519081900360640190fd5b610b51838387610b89565b979650505050505050565b6000808060001984860990508385029250828103915082811015610b81576001820391505b509250929050565b60008181038216808381610b9957fe5b049250808581610ba557fe5b049450808160000381610bb457fe5b60028581038087028203028087028203028087028203028087028203028087028203028087028203029586029003909402930460010193909302939093010292915050565b6040518060200160405280600081525090565b6040805160208101909152600081529056fea26469706673582212202b5961e689b2ff51abdf56f9cab4714052859ea11efca808f9c96d7d22d368fe64736f6c634300060c0033",
  "devdoc": {
    "kind": "dev",
    "methods": {},
    "version": 1
  },
  "userdoc": {
    "kind": "user",
    "methods": {},
    "version": 1
  },
  "storageLayout": {
    "storage": [
      {
        "astId": 1440,
        "contract": "contracts/oracles/UniswapV2Oracle.sol:UniswapV2Oracle",
        "label": "prices",
        "offset": 0,
        "slot": "0",
        "type": "t_mapping(t_address,t_mapping(t_address,t_struct(PriceData)1434_storage))"
      }
    ],
    "types": {
      "t_address": {
        "encoding": "inplace",
        "label": "address",
        "numberOfBytes": "20"
      },
      "t_mapping(t_address,t_mapping(t_address,t_struct(PriceData)1434_storage))": {
        "encoding": "mapping",
        "key": "t_address",
        "label": "mapping(address => mapping(address => struct UniswapV2Oracle.PriceData))",
        "numberOfBytes": "32",
        "value": "t_mapping(t_address,t_struct(PriceData)1434_storage)"
      },
      "t_mapping(t_address,t_struct(PriceData)1434_storage)": {
        "encoding": "mapping",
        "key": "t_address",
        "label": "mapping(address => struct UniswapV2Oracle.PriceData)",
        "numberOfBytes": "32",
        "value": "t_struct(PriceData)1434_storage"
      },
      "t_struct(PriceData)1434_storage": {
        "encoding": "inplace",
        "label": "struct UniswapV2Oracle.PriceData",
        "members": [
          {
            "astId": 1427,
            "contract": "contracts/oracles/UniswapV2Oracle.sol:UniswapV2Oracle",
            "label": "priceCumulativeLast",
            "offset": 0,
            "slot": "0",
            "type": "t_uint256"
          },
          {
            "astId": 1429,
            "contract": "contracts/oracles/UniswapV2Oracle.sol:UniswapV2Oracle",
            "label": "priceAverage",
            "offset": 0,
            "slot": "1",
            "type": "t_uint144"
          },
          {
            "astId": 1431,
            "contract": "contracts/oracles/UniswapV2Oracle.sol:UniswapV2Oracle",
            "label": "blockTimestampLast",
            "offset": 18,
            "slot": "1",
            "type": "t_uint32"
          },
          {
            "astId": 1433,
            "contract": "contracts/oracles/UniswapV2Oracle.sol:UniswapV2Oracle",
            "label": "genesisTimestamp",
            "offset": 22,
            "slot": "1",
            "type": "t_uint32"
          }
        ],
        "numberOfBytes": "64"
      },
      "t_uint144": {
        "encoding": "inplace",
        "label": "uint144",
        "numberOfBytes": "18"
      },
      "t_uint256": {
        "encoding": "inplace",
        "label": "uint256",
        "numberOfBytes": "32"
      },
      "t_uint32": {
        "encoding": "inplace",
        "label": "uint32",
        "numberOfBytes": "4"
      }
    }
  }
}